S016000044726976654279576972654543552E73726563E5
S113000050170120F10200008D0300008D03000051
S11300108D0300008D0300008D030000000000002C
S11300200000000000000000000000009D370000F8
S11300308D03000000000000C137000025380000D7
S11300408D0300008D0300008D0300008D0300006C
S11300508D0300008D0300008D0300008D0300005C
S11300608D0300008D0300008D0300008D0300004C
S11300708D0300008D0300008D0300008D0300003C
S11300808D0300008D0300008D0300008D0300002C
S11300908D0300008D0300008D0300008D0300001C
S11300A08D0300008D0300008D0300008D0300000C
S11300B08D0300008D0300008D0300008D030000FC
S11300C08D0300008D0300008D0300008D030000EC
S11300D08D0300008D0300008D0300008D030000DC
S11300E08D0300008D0300000000000000000000EC
S11300F000000000252D00008D0300008D0300008A
S11301008D0300008D0300008D0300008D030000AB
S11301108D0300008D0300008D0300008D0300009B
S11301208D0300008D0300008D0300008D0300008B
S11301308D0300008D0300008D0300008D0300007B
S11301408D0300008D0300008D0300008D0300006B
S11301508D0300008D0300008D0300008D0300005B
S11301608D0300008D0300008D0300008D0300004B
S11301708D0300008D0300008D0300001D2300008B
S11301808D0300008D0300008D0300008D0300002B
S1130190A92900008D0300008D0300008D030000D9
S11301A08D0300008D0300008D0300008D0300000B
S11301B08D0300008D0300008D0300008D030000FB
S11301C08D0300008D0300008D0300008D030000EB
S11301D08D0300008D0300008D0300008D030000DB
S11301E08D0300008D0300008D0300008D030000CB
S11301F08D0300008D0300008D0300008D030000BB
S11302008D0300008D0300008D0300008D030000AA
S11302108D0300008D0300008D0300008D0300009A
S11302208D0300008D0300008D0300008D0300008A
S11302308D0300008D0300008D0300008D0300007A
S11302408D0300008D0300008D0300008D0300006A
S11302508D0300008D0300008D0300008D0300005A
S11302608D03000010B5054C237833B9044B13B14A
S11302700448AFF300800123237010BDA0000020C8
S113028000000000204800000C4B43B10C480D490D
S113029010B5AFF300800C48036823B910BD0A48B9
S11302A0036833B97047094B002BF7D0BDE8104001
S11302B01847064B002BF5D0184700BF000000007C
S11302C020480000A4000020204800000000000096
S11302D080B500AF034B9847034B9847034B9847AF
S11302E000BF80BDC50E00009D100000E136000077
S11302F080B582B000AF1C4B7B601C4B3B607A68BE
S11303003B689A420CD007E03B681A1D3A607A6851
S1130310111D796012681A603B68154A9342F3D341
S1130320144B3B6004E03B681A1D3A6000221A60DB
S11303303B68114A9342F6D3104B7B60104A7B68AA
S113034023F07F0393600E4A0D4BD3F8883043F4B7
S11303507003C2F88830BFF34F8FBFF36F8F094B20
S11303609847094B9847FEE720480000000000200A
S113037094000020A000002050170020000000007E
S113038000ED00E06D3E00001135000080B400AFC8
S1130390FEE780B487B000AFF860B9607A603B6074
S11303A097ED017AD7ED027A77EE677AC7ED057A91
S11303B097ED037AD7ED027A77EE676A97ED057ABF
S11303C0C6EE877AC7ED047A97ED087AD7ED007AFE
S11303D037EE677AD7ED047A27EE277AD7ED007ADD
S11303E077EE277A17EE903A18461C37BD465DF82B
S11303F0047B704790B587B002AF354B1B68012B67
S113040002DC4FF000035FE03A1D02230021314873
S1130410314CA047BB8807EE903AB8EE677ADFED1F
S11304202F6AC7EE267A9FED2E7A67EE877AC7ED9C
S1130430027A0023FB6040E0254B1B685A1EFB68D0
S11304409A4205D1274AFB689B0013441B683BE092
S1130450FB680133244A9B00134493ED007AD7EDE3
S1130460027AB4EEE77AF1EE10FA23DBFB68002B94
S113047002D14FF0000327E01B4AFB689B001344A2
S11304801968FB680133184A9B0013441868154A1D
S1130490FB689B0013441C68FB680133114A9B00F2
S11304A013441B68009323460246B8680F4CA047C8
S11304B0034609E0FB680133FB60054B1B68FA68DF
S11304C09A42B9DB4FF0000318461437BD4690BD7D
S11304D000000020DC1600204111000000F07F45E0
S11304E03333534034460000404600009303000079
S11304F080B582B000AFC7E90001044B98470246BB
S1130500034B9A6000BF0837BD4680BDF503000069
S11305108416002080B400AF024B1846BD465DF837
S1130520047B70478416002080B483B000AFC7E911
S1130530000100BF0C37BD465DF8047B704780B4F2
S113054000AF00BFBD465DF8047B704780B483B044
S113055000AF786000BF0C37BD465DF8047B704780
S113056080B485B000AFF8600B467A60FB72FA7A0B
S1130570FB682032796843F8221000BF1437BD4667
S11305805DF8047B704780B483B000AF78607B680B
S11305901B6943F480427B681A6100BF0C37BD4677
S11305A05DF8047B704780B483B000AF78607B68EB
S11305B01B6943F480227B681A6100BF0C37BD4677
S11305C05DF8047B704780B483B000AF78607B68CB
S11305D09B6943F400727B689A6100BF0C37BD4687
S11305E05DF8047B704780B483B000AF78607B68AB
S11305F09B6943F480527B689A6100BF0C37BD4607
S11306005DF8047B704780B483B000AF78607B688A
S1130610DB6943F004027B68DA6100BF0C37BD4636
S11306205DF8047B704780B483B000AF78607B686A
S11306301B6A43F480727B681A6200BF0C37BD46A4
S11306405DF8047B704780B485B000AFF8600B465A
S11306507A60FB72FB7AFA68DB01134408337A6828
S11306601A6000BF1437BD465DF8047B704780B440
S113067085B000AFF8600B467A60FB72FB7AFA68CB
S1130680DB01134404337A681A6000BF1437BD4693
S11306905DF8047B704780B485B000AFF8600B460A
S11306A07A60FB72FB7AFA68DB01134418337A68C8
S11306B01A6000BF1437BD465DF8047B704780B4F0
S11306C085B000AFF8600B467A60FB72FB7AFA687B
S11306D0DB01134414337A681A6000BF1437BD4633
S11306E05DF8047B704780B485B000AF786008463D
S11306F011461A460346FB700B46BB7013467B70CB
S1130700FA78BB787968D2010A44134430331B78F1
S1130710FB73FB7B23F00F03FB737B7803F00F0366
S1130720DAB2FB7B1343FB73FA78BB787968D201A6
S11307300A4413443033FA7B1A7000BF1437BD46A1
S11307405DF8047B704780B485B000AF78600846DC
S113075011461A460346FB700B46BB7013467B706A
S1130760FA78BB787968D2010A44134430331B7891
S1130770FB73FB7B03F00F03FB737B781B01DAB283
S1130780FB7B1343FB73FA78BB787968D2010A4484
S113079013443033FA7B1A7000BF1437BD465DF83A
S11307A0047B704780B485B000AF7860084611467A
S11307B01A460346FB700B46BB7013467B70FA78EF
S11307C0BB787968D2010A44134440331B78FB7325
S11307D0FB7B23F00103FB737A78FB7B1343FB73EE
S11307E0FA78BB787968D2010A4413444033FA7B1F
S11307F01A7000BF1437BD465DF8047B704790B48F
S113080082B000AF78600B46FB701346BB70FA7879
S1130810BB78F878B9787C68C00120440144403141
S11308200978C9B241F00401C8B27968D2010A4416
S11308301344403302461A7000BF0837BD4690BCCB
S1130840704790B482B000AF78600B46FB701346DB
S1130850BB70FA78BB78F878B9787C68C00120441A
S1130860014440310978C9B221F00401C8B2796861
S1130870D2010A441344403302461A7000BF0837B9
S1130880BD4690BC704780B485B000AFF8600B469D
S11308907A60FB72FB7AFA68DB01134428337A68C6
S11308A01A6000BF1437BD465DF8047B7047000032
S11308B080B582B000AF03463960FB711346BB714B
S11308C0BB79012B1CD0022B37D0002B4ED1FB79E6
S11308D03A6819462A482B4B98473B689BB243F029
S11308E08042FB7919462648274B98473B681B0CE6
S11308F043F04042FB7919462148234B98473AE09C
S1130900FB793A6819461E481E4B98473B689BB2D0
S113091043F0804343F40033F9791A4618481A4BDC
S113092098473B681B0C43F0404343F40033F97988
S11309301A461348144B98471DE0FB793A68194648
S11309400F48124B98473B689BB243F08042FB79B7
S113095019460B480C4B98473B681B0C43F040422C
S1130960FB7919460648084B984704E04622084993
S11309700020084B984700BF0837BD4680BD00BF24
S1130980008000416F060000870800004706000051
S11309904C4600008D16000080B582B000AF0346BF
S11309A03960FB711346BB71BB79002B06D0FB7910
S11309B03A6819460648074B984705E0FB793A68B8
S11309C019460348044B984700BF0837BD4680BD0D
S11309D00080004197060000BF06000080B582B089
S11309E000AF0346FB710B46BB7113467B717B79E9
S11309F0012B0AD0022B1FD0002B34D1BA79FB79FA
S1130A0019461E481E4B984733E0BB7901229A4091
S1130A10FB79194619481B4B9847BA79FB79194653
S1130A201648194B9847BB7901229A40FB7919461D
S1130A301248164B98471CE0BB7901229A40FB7977
S1130A4019460E480F4B9847BA79FB7919460B485B
S1130A500D4B9847BB7901229A40FB791946074808
S1130A600B4B984705E089220A4900200A4B984716
S1130A7000BF00BF0837BD4680BD00BF00800041F5
S1130A80430800006F060000FF07000097060000FF
S1130A90BF0600004C4600008D16000090B585B0DE
S1130AA000AF786039607B685B09FB737B68DBB2FD
S1130AB003F01F03BB733B68B3F1FF3F06D1BA7B5E
S1130AC0F97B00231248134CA0471DE0BA7BF97B45
S1130AD001230F480F4CA047BB7B03F00103002BFD
S1130AE009D0BB7B5B08DAB23B68DBB2F97B084810
S1130AF0094CA04708E0BB7B5B08DAB23B68DBB279
S1130B00F97B0348054CA04700BF1437BD4690BD90
S1130B1000800041A507000047070000E706000029
S1130B2080B582B000AF03460A46FB711346BB7121
S1130B30FB795B09D8B2FB7903F01F03DBB2BA7906
S1130B401946034B984700BF0837BD4680BD00BF18
S1130B50DD09000080B582B000AF78603960396883
S1130B607868034B984700BF0837BD4680BD00BF77
S1130B709D0A000080B582B000AF03460A46FB71AF
S1130B801346BB71FB795B09D8B2FB7903F01F03F1
S1130B90012202FA03F3BA791946034B984700BFBE
S1130BA00837BD4680BD00BFB108000080B582B0E3
S1130BB000AF03460A46FB711346BB71FB795B0920
S1130BC0D8B2FB7903F01F03012202FA03F3BA79C6
S1130BD01946034B984700BF0837BD4680BD00BF88
S1130BE09909000080B500AF014B984700BF80BD54
S1130BF0AD25000080B500AF00212820034B9847A5
S1130C0003492820034B984700BF80BD750B0000A3
S1130C1001002800550B000080B500AF0448054BC7
S1130C209847402229210448044B984700BF80BDBF
S1130C300008004027060000001C00406105000079
S1130C4080B500AF074B9847074B984700220749E8
S1130C500748084B984700210548074B984700BFB1
S1130C6080BD00BF190C0000F50B000000200043FC
S1130C70DC160020AD100000FD10000080B500AFB0
S1130C8004493920044B984704493820024B9847BB
S1130C9000BF80BD03003900550B0000030038007D
S1130CA080B500AF402217210648074B98474322DE
S1130CB003210448044B98470448054B984700BF58
S1130CC080BD00BF001C004061050000000800401A
S1130CD0C705000080B500AF054B984700220549C1
S1130CE00548064B9847064B984700BF80BD00BF98
S1130CF0A10C000000200141D01600208114000046
S1130D007D0C000080B500AF0E494E200E4B984775
S1130D100E493A200C4B98470D493B200A4B984703
S1130D200C493C20084B98470B493D20064B9847FB
S1130D300A491620044B984709491720024B984743
S1130D4000BF80BD06004E00550B000005003A00B0
S1130D5005003B0005003C0005003D0005001600B1
S1130D600500170080B500AF0448054B98474022A2
S1130D7019210448044B984700BF80BD0008004077
S1130D80E7050000001C00406105000080B500AFCD
S1130D9004492D20044B984704492C20024B9847C2
S1130DA000BF80BD07002D00550B000007002C007C
S1130DB080B500AF0748084B984740221C210748DC
S1130DC0074B984707490848084B9847084B9847EA
S1130DD000BF80BD00080040A7050000001C0040C3
S1130DE06105000000040042A8160020391200002A
S1130DF08D0D000080B500AF14494B20144B98476B
S1130E0014494C20124B984713490D20104B984716
S1130E1012490C200E4B9847114954200C4B98470B
S1130E2010490F200A4B98470F491220084B984746
S1130E300E491320064B98470D490E20044B984742
S1130E400C491120024B984700BF80BD0B004B009A
S1130E50550B00000B004C000B000D000B000C00A8
S1130E600B0054000B000F000B0012000B001300CA
S1130E700B000E000B00110080B500AF0348044BBB
S1130E8098470248034B984700BF80BD00080040C4
S1130E90870500000706000080B500AF044B9847A3
S1130EA004490548054B9847054B984700BF80BD4A
S1130EB0790E000000080042E0160020F91300003B
S1130EC0F50D000080B500AF494B9847002106207E
S1130ED0484B984702210620474B98474FF0FF3173
S1130EE00620464B984700210720424B9847022191
S1130EF00720414B98474FF0FF3107203F4B98475D
S1130F00002121203B4B9847022121203A4B98474E
S1130F104FF0FF312120394B984700212620354BD3
S1130F20984702212620344B98474FF0FF31262062
S1130F30324B9847012127202F4B98470221272025
S1130F402F4B98474FF0FF3127202C4B9847002117
S1130F504120284B984702214120274B98474FF0C6
S1130F60FF314120254B984700214A20214B9847C7
S1130F7002214A20204B98474FF0FF314A201F4B53
S1130F809847012152201B4B9847022152201A4BAB
S1130F9098474FF0FF315220184B984700215E20AC
S1130FA0144B984702215E20134B98474FF0FF31B2
S1130FB05E20124B9847012160200F4B9847022175
S1130FC060200F4B98474FF0FF3160200B4B984740
S1130FD00C4B98470C4B98470C4B98470C4B984735
S1130FE00C4B98470C4B98470C4B984700BF80BD5F
S1130FF0E50B0000AD0B0000750B0000550B000065
S1131000210B0000410C0000D50C0000650D000010
S1131010050D00006D340000B10D0000990E0000B4
S113102080B584B000AFF860B9601346FB80FB68FC
S1131030002B07D0BB68002B04D0FB881F2B01D8E2
S1131040012300E0002303F00103DBB22A22074955
S11310501846074B9847FB68BA681A60FB68FA8819
S11310609A80002318461037BD4680BD784600009C
S11310708D16000080B500AF0448054B9847002248
S113108002490448044B984700BF80BDE016002085
S1131090451400007C1600202110000080B500AF2C
S11310A0014B984700BF80BD7510000080B584B027
S11310B000AFF860B9607A60FB68002B04D0BB68AD
S11310C0002B01D0012300E0002303F00103DBB275
S11310D0392207491846074B9847FB68B9681846F0
S11310E0054B9847034618461037BD4680BD00BFE0
S11310F0984600008D160000C91C000080B582B01F
S113110000AF78600B46FB707B68002B14BF012393
S11311100023DBB24E2207491846074B98477B68E9
S1131120FA7811461846054B9847002318460837A5
S1131130BD4680BD984600008D1600001D1D0000B0
S113114080B586B000AFF8607A601A460B46FB7231
S113115013463B810023FB82FB68002B07D07B688E
S1131160002B04D03B89002B01D0012300E0002395
S113117003F00103DBB2672229491846294B98473B
S1131180FB681846284B984703467B753B897A7D54
S113119093FBF2F102FB01F29B1A002B0CBF01231B
S11311A00023DBB269221E4918461E4B9847FB6890
S11311B018461E4B984700BFFB68FA7A114618463A
S11311C01B4B9847034683F00103DBB2002BF3D19A
S11311D0FB68FA7A11461846164B984703467B82F9
S11311E0FB8A7A6813447A8AD2B21A707B7D012B07
S11311F008D9FB8A01337A6813447A8A120A92B2B4
S1131200D2B21A707B7D9AB2FB8A1344FB82FA8AAB
S11312103B899A42CBD3FB8A18461837BD4680BD1A
S1131220984600008D160000411D0000911D00002D
S11312306D1D0000B11D000080B584B000AF786062
S113124039607B68002B04D03B68002B01D001235C
S113125000E0002303F00103DBB241220E491846EB
S11312600E4B98477B68396818460D4B9847F860D1
S1131270FB68002B01D0FB6809E07B68094A5A60CF
S11312807B68094A9A607B68084ADA60002318463A
S11312901037BD4680BD00BFB44600008D16000067
S11312A03D210000B1120000D5120000F912000027
S11312B080B584B000AF78607B68FB60FB68DB6955
S11312C0002B03D0FB68DB69F868984700BF103730
S11312D0BD4680BD80B584B000AF78607B68FB609C
S11312E0FB681B6A002B03D0FB681B6AF8689847ED
S11312F000BF1037BD4680BD80B584B000AF7860B4
S11313000B46FB707B68FB60FB685B6A002B05D0B7
S1131310FB685B6AFA781146F868984700BF103793
S1131320BD4680BD90B583B000AF0346FB80074B3C
S11313301C68FB881846064B984703461946204606
S1131340044B984700BF0C37BD4690BDBC0000203D
S11313502D2500005925000080B584B000AFF86049
S1131360B9601346FB80FB68002B04D0BB68002BDC
S113137001D0012300E0002303F00103DBB2342297
S113138007491846074B9847FB681B68FA88B968F1
S1131390F8689847034618461037BD4680BD00BF1D
S11313A0D04600008D16000080B584B000AFF86010
S11313B0B9601346FB80FB68002B04D0BB68002B8C
S11313C001D0012300E0002303F00103DBB23D223E
S11313D007491846074B9847FB685B68FA88B96861
S11313E0F8689847034618461037BD4680BD00BFCD
S11313F0D04600008D16000080B582B000AF786042
S113140039607B68002B04D03B68002B01D001239A
S113141000E0002303F00103DBB231220649184641
S1131420064B98477B6839681846054B984703462E
S113143018460837BD4680BDE44600008D160000FE
S11314407D2A000080B582B000AF78607B68002BF5
S113145014BF01230023DBB2452206491846064B7C
S113146098477B681846054B984703461846083743
S1131470BD4680BDE44600008D160000352B0000FB
S113148080B586B000AFF860B9607A60FB68002B65
S113149004D0BB68002B01D0012300E0002303F03B
S11314A00103DBB234220D4918460D4B9847FB6803
S11314B00833B96818460B4B984778617B69002B51
S11314C001D07B6906E0FB68074A5A60FB68074A5B
S11314D01A60002318461837BD4680BD0047000037
S11314E08D160000D52F0000F915000031150000FD
S11314F080B582B000AF78607B68002B14BF0123F5
S11315000023DBB2532207491846074B98477B68F0
S113151008331846054B9847002318460837BD463C
S113152080BD00BF004700008D1600001930000088
S113153080B586B000AFF860B9601346FB80002325
S11315407B61FB683B61FB68002B07D0BB68002B09
S113155004D0FB88002B01D0012300E0002303F01A
S11315600103DBB2F1221F4918461F4B984700BF05
S11315703B69083318461D4B9847034683F0010323
S1131580DBB2002BF4D13B6903F10800BA687B6934
S113159013441B781946164B984700BF3B69083320
S11315A01846124B9847034683F00103DBB2002B25
S11315B0F4D17B6901337B61FB887A699A42E2D377
S11315C000BF3B69083318460A4B9847034683F02B
S11315D00103DBB2002BF4D17B6918461837BD46F2
S11315E080BD00BF004700008D160000853000005C
S11315F039300000A530000090B587B000AFF86026
S1131600B9601346FB8000237B61FB683B61FB6888
S1131610002B07D0BB68002B04D0FB88002B01D023
S1131620012300E0002303F00103DBB24FF48672D0
S113163012491846124B984700BF3B6908331846B5
S1131640104B9847034683F00103DBB2002BF4D11F
S1131650BA687B69D4183B69083318460A4B984723
S1131660034623707B6901337B61FB887A699A4264
S1131670E2D37B6918461C37BD4690BD0047000085
S11316808D160000C53000006130000080B485B0C4
S113169000AF0346B9607A60FB73FB7B83F0010300
S11316A0DBB2002B00D000BE00BF1437BD465DF88E
S11316B0047B704780B485B000AF78600B4B1B6827
S11316C0002B02D1094B0A4A1A60084B1B68FB60C5
S11316D0064B1A687B681344044A1360FB68184677
S11316E01437BD465DF8047B704700BFC00000207E
S11316F05017012080B483B000AF78604FF0FF33FF
S113170018460C37BD465DF8047B704780B483B03F
S113171000AF786039603B684FF400525A60002390
S113172018460C37BD465DF8047B704780B485B01D
S113173000AFF860B9607A60002318461437BD46DC
S11317405DF8047B704780B483B000AF7860396083
S113175000BF7B681A6B3B681340002BF9D100BFB4
S11317600C37BD465DF8047B704780B483B000AF8E
S1131770786039607B681A6B3B681340002B14BF98
S113178001230023DBB218460C37BD465DF8047B09
S1131790704780B483B000AF78607B6893F82E30D4
S11317A0DBB203F00103002B14BF01230023DBB2DF
S11317B018460C37BD465DF8047B704780B483B08F
S11317C000AF78607B68B3F840309BB218460C37A2
S11317D0BD465DF8047B704780B582B000AF786089
S11317E07B681B889BB243F002039AB27B681A8021
S11317F003217868024B984700BF0837BD4680BD77
S11318004717000080B582B000AF78607B681B8802
S11318109BB223F002039AB27B681A800321786892
S1131820024B984700BF0837BD4680BD47170000EC
S113183080B584B000AF78600B467B800321786864
S1131840064B98477B681B88FB81FA897B88134089
S1131850FB81FB8918461037BD4680BD4717000041
S113186080B582B000AF78600B467B807B687A8855
S11318701A8003217868034B984700BF0837BD4698
S113188080BD00BF4717000080B483B000AF78600C
S11318900B46FB707B68FA789A7000BF0C37BD4624
S11318A05DF8047B704780B483B000AF78600B466A
S11318B0FB707B68FA78DA7000BF0C37BD465DF8C0
S11318C0047B704780B582B000AF78600B467B80A4
S11318D07B687A889A8040F6FF717868024B984753
S11318E000BF0837BD4680BD4717000080B485B0EF
S11318F000AF78607B68DB88FB81FB89DB089BB2E7
S113190003F00303FB81FB8918461437BD465DF8D9
S1131910047B704780B582B000AF78600B467B8053
S11319207B687A88DA8040F6FF717868024B9847C2
S113193000BF0837BD4680BD4717000080B582B0A0
S113194000AF78600B46FB707B68FA781A7240F639
S1131950FF717868024B984700BF0837BD4680BDC9
S11319604717000080B582B000AF78600B46FB706B
S11319707B68FA789A7240F6FF717868024B984750
S113198000BF0837BD4680BD4717000080B582B050
S113199000AF78600B46FB707B68FA78DA7240F629
S11319A0FF717868024B984700BF0837BD4680BD79
S11319B04717000080B582B000AF78600B467B808B
S11319C07B687A889A8180217868034B984700BFA6
S11319D00837BD4680BD00BF4717000080B582B000
S11319E000AF78600B467B807B687A88DA814FF49D
S11319F080717868024B984700BF0837BD4680BDA8
S1131A004717000080B582B000AF78600B467B803A
S1131A107B687A881A824FF400717868024B984781
S1131A2000BF0837BD4680BD4717000080B582B0AF
S1131A3000AF78600B467B807B687A885A824FF4CB
S1131A4080617868024B984700BF0837BD4680BD67
S1131A504717000080B582B000AF78607B681B7DBB
S1131A60DBB243F00203DAB27B681A7540F6FF7109
S1131A707868034B984700BF0837BD4680BD00BF58
S1131A804717000080B483B000AF78607B6803F12F
S1131A903D43A3F5E0539B0ADBB218460C37BD4621
S1131AA05DF8047B7047000080B584B000AF7860B7
S1131AB07B681846114B98470346BB730023FB739E
S1131AC00EE0FB7B0E4A162101FB03F313441B7843
S1131AD0BA7B9A4201D1FB7B0BE0FB7B0133FB73A6
S1131AE0FB7B002BEDD0882206490020064B98474B
S1131AF0002318461037BD4680BD00BF851A00007C
S1131B001C470000344700008D16000080B582B0E9
S1131B1000AF78600B46FB7001217868594B9847F9
S1131B20034683F00103DBB2002B11D00221786855
S1131B30554B98470346002B06D07868534B98477B
S1131B4002217868524B984701217868514B984795
S1131B50012178684E4B9847FB784F4A162101FBC8
S1131B6003F3134404331B88194678684B4B984796
S1131B70FB78494A162101FB03F3134406331B780F
S1131B8019467868464B9847FB78434A162101FB6F
S1131B9003F3134407331B7819467868414B98477D
S1131BA0FB783D4A162101FB03F3134408331B88D9
S1131BB0194678683C4B9847FB78374A162101FB55
S1131BC003F313440A331B7819467868374B984754
S1131BD0FB78314A162101FB03F313440B331B78C2
S1131BE019467868324B9847FB782B4A162101FB3B
S1131BF003F313440C331B88194678682D4B98471C
S1131C00FB78254A162101FB03F313440E331B888A
S1131C1019467868284B9847FB781F4A162101FB20
S1131C2003F3134410331B8819467868234B9847F1
S1131C30FB78194A162101FB03F3134412331B8862
S1131C40194678681E4B9847FB78134A162101FB06
S1131C5003F3134414331B7819467868194B9847D7
S1131C60FB780D4A162101FB03F3134402331B884E
S1131C7019467868074B9847002318460837BD462D
S1131C8080BD00BF6B17000031180000051800006C
S1131C9047170000611800001C47000015190000D8
S1131CA03D19000089180000C518000065190000DE
S1131CB08D190000B5190000DD190000051A000097
S1131CC02D1A0000A718000080B582B000AF78601C
S1131CD039607B68002B14BF01230023DBB2CE22C2
S1131CE00A4918460A4B98477B683A681A603B6869
S1131CF01846084B9847034619463868064B9847D8
S1131D00034618460837BD4680BD00BF344700006F
S1131D108D160000A91A00000D1B000080B582B0CA
S1131D2000AF78600B46FB707B681B681846034B5A
S1131D30984700BF0837BD4680BD00BFD9170000D3
S1131D4080B582B000AF78607B681B681846064B8C
S1131D5098470346032B01D1012300E002231846D0
S1131D600837BD4680BD00BFED18000080B582B0C5
S1131D7000AF78600B46FB707B681B681846034B0A
S1131D809847034618460837BD4680BD93170000A0
S1131D9080B582B000AF78607B681B681846034B3F
S1131DA0984700BF0837BD4680BD00BF551A0000E4
S1131DB080B582B000AF78600B46FB707B681B680F
S1131DC01846034B9847034618460837BD4680BD5E
S1131DD0BD17000080B483B000AF0346FB80B7F9A1
S1131DE00630002B0BDB0949B7F906305B09FA888A
S1131DF002F01F02012000FA02F241F8232000BF82
S1131E000C37BD465DF8047B704700BF00E100E07D
S1131E1080B483B000AF0346FB80B7F90630002BD3
S1131E2010DB0B49B7F906305B09FA8802F01F0290
S1131E30012000FA02F2203341F82320BFF34F8F30
S1131E40BFF36F8F00BF0C37BD465DF8047B70474E
S1131E5000E100E080B483B000AF0346FB80B7F933
S1131E600630002B0CDB0949B7F906305B09FA8808
S1131E7002F01F02012000FA02F2603341F823202D
S1131E8000BF0C37BD465DF8047B704700E100E0FD
S1131E9080B483B000AF78607B685B6C5B0903F04F
S1131EA00103002B14BF01230023DBB218460C37B7
S1131EB0BD465DF8047B704780B483B000AF7860A2
S1131EC039607B683A689A6000BF0C37BD465DF89C
S1131ED0047B704780B483B000AF786039607B685E
S1131EE03A68DA6000BF0C37BD465DF8047B704782
S1131EF080B483B000AF78607B689B6943F00102D3
S1131F007B689A6100BF0C37BD465DF8047B70475F
S1131F1080B485B000AF78607B689B69FB60FB6828
S1131F2003F00103FB60FB68002B14BF01230023B3
S1131F30DBB218461437BD465DF8047B704780B4A5
S1131F4083B000AF78607B689B6923F001027B68F3
S1131F509A6100BF0C37BD465DF8047B704780B4BE
S1131F6083B000AF78607B689B6943F002027B68B2
S1131F709A6100BF0C37BD465DF8047B704780B49E
S1131F8083B000AF78607B689B6923F002027B68B2
S1131F909A6100BF0C37BD465DF8047B704780B47E
S1131FA083B000AF786039607B689A693B681A43F4
S1131FB07B689A6100BF0C37BD465DF8047B7047AF
S1131FC080B483B000AF786039607B683A68DA61C6
S1131FD000BF0C37BD465DF8047B704780B483B006
S1131FE000AF786039607B683A681A6500BF0C37C7
S1131FF0BD465DF8047B704780B483B000AF786061
S11320007B681B6D18460C37BD465DF8047B704732
S113201080B483B000AF786039607B683A68DA6571
S113202000BF0C37BD465DF8047B704780B483B0B5
S113203000AF786039607B683A68C3F8802000BFDD
S11320400C37BD465DF8047B704780B483B000AFA5
S1132050786039607B683A68C3F8842000BF0C3725
S1132060BD465DF8047B704780B483B000AF7860F0
S113207039607B683A68C3F8882000BF0C37BD46D6
S11320805DF8047B704780B483B000AF786039603A
S11320907B683A68C3F8902000BF0C37BD465DF8F2
S11320A0047B704780B483B000AF786039607B688C
S11320B03A68C3F8A02000BF0C37BD465DF8047B26
S11320C0704780B483B000AF786039607B683A6849
S11320D0C3F8BC2000BF0C37BD465DF8047B7047D5
S11320E080B483B000AF786039607B683A68C3F825
S11320F0C02000BF0C37BD465DF8047B704780B438
S113210083B000AF786039607B683A68C3F8C82050
S113211000BF0C37BD465DF8047B704780B483B0C4
S113212000AF786039607B683A68C3F8F02000BF7C
S11321300C37BD465DF8047B7047000080B582B063
S113214000AF786039607B683A681A607B681B6806
S11321501846534B984700BF7B681B681846514B81
S11321609847034683F00103DBB2002BF4D17B686C
S11321701B6818464C4B98473B684C4A934277D1AE
S11321804B4A7B6813607B684A4A9A617B681B6888
S113219000211846484B98477B681B680021184665
S11321A0464B98477B681B6845491846454B9847FA
S11321B07B681B6840F633211846434B98477B687D
S11321C01A68424B9BB243F4003319461046404B05
S11321D098477B681B68002118463E4B98477B68EC
S11321E01B68002118463C4B98477B681A683B4B98
S11321F09BB243F0007319461046394B98477B68ED
S11322001A68384B9BB243F4003319461046364BD8
S113221098477B681B6828211846344B98477B688D
S11322201A68334B9BB243F4003319461046314BC2
S113223098477B681A68304B9BB243F400331946C5
S113224010462E4B98477B681B68002118462C4B80
S113225098474F202B4B98474F202B4B98474F20A4
S11322602A4B98477B681B6801211846284B9847DE
S11322707B681B681846274B98477B681B68184681
S1132280254B984700BF7B681B681846054B984749
S11322900346002BF7D1002318460837BD4680BDFE
S11322A0F11E0000111F00005F1F00000004004227
S11322B0EC000020040000209F1F0000B91E000055
S11322C0070A0206C11F0000D51E00001C170020CB
S11322D0A5200000C3200000FF200000FC16002001
S11322E0E1200000C40000201D2100002D2000007A
S11322F0D40000204B200000DC00002069200000F6
S113230087200000111E0000551E0000D51D00008E
S1132310112000007F1F00003F1F000090B583B014
S113232000AF2C4B1B687B607B681B6818462A4BEC
S1132330984738603B6803F00103002B03D07B68A7
S11323409B68786898473B6803F40073002B03D0BC
S11323507B685B68786898473B6803F00073002BE0
S113236004D07B68DB680321786898473B6803F0F6
S11323708073002B04D07B68DB6800217868984761
S11323803B6803F40003002B0FD07B68DC687B6898
S11323901B681846114B98470346002B01D00223B3
S11323A000E0012319467868A0473B6803F008035E
S11323B0002B04D07B68DB680421786898477B682D
S11323C01B6839681846064B984700BF0C37BD4652
S11323D090BD00BFEC000020F91F0000911E00001A
S11323E0DD1F000080B483B000AF03463960FB807A
S11323F013467B717B79043B052B6BD801A252F801
S113240023F000BFB32400009324000075240000CF
S113241057240000392400001D240000FB883A687A
S11324203549A1FB0212920C02FB03F30233334A37
S1132430A2FB03235B0859E0FB883A685209304940
S1132440A1FB0212D20902FB03F31D332D4AA2FBA6
S113245003231B094AE0FB883A682B49A1FB0212BB
S1132460520B02FB03F303F22B13284AA2FB0323B0
S11324705B093BE0FB883A682549A1FB02129209FB
S113248002FB03F303F6B733224AA2FB03239B099F
S11324902CE0FB883A682049A1FB0212520902FB96
S11324A003F303F5EA432F331C4AA2FB03235B0B1C
S11324B01CE0FB883A681A49A1FB0212D20802FB0D
S11324C003F303F5922303F2DF33164AA2FB03233B
S11324D05B0C0BE0FB883A6802FB03F303F537134C
S11324E003F2BF63104AA2FB03239B0C18460C376C
S11324F0BD465DF8047B704783DE1B43ABAAAAAAE2
S1132500C55A7C0A898888885917B7D1B5814E1B6A
S1132510D34D6210F11976051F85EB5173B2E7456F
S1132520CDCCCCCC851DD96F819F5E1680B582B091
S113253000AF0346FB80FB88082204491846044B7D
S11325409847034618460837BD4680BD001BB700B0
S1132550E52300000000000080B483B000AF786081
S1132560396000BFAFF300800139FDD800BF0C37DC
S1132570BD465DF8047B704780B483B000AF7860DB
S11325800B467B807B681B889AB27B881B029BB2BC
S113259003F470639BB213439AB27B681A8000BF42
S11325A00C37BD465DF8047B7047000080B500AF72
S11325B000210848084B9847084B9847084B984710
S11325C0084B9847084B984740F6FF70074B9847CD
S11325D000BF80BD0040004179250000FD2B0000B4
S11325E0952C0000792B0000D52C00004526000016
S11325F080B483B000AF7860396000BF7B685A68EC
S11326003B681340002BF9D100BF0C37BD465DF881
S1132610047B704780B584B000AFF8600B467A60E5
S1132620FB72FA7AFB680832796843F8221043F6A1
S1132630FD71F868024B984700BF1037BD4680BD56
S1132640F125000080B582B000AF78607B6803F0AC
S11326500103002B04D0044A00210448044B98478A
S113266000BF0837BD4680BD01010100001C0040C9
S11326701526000080B483B000AF0346FB80B7F991
S11326800630002B0BDB0949B7F906305B09FA88E1
S113269002F01F02012000FA02F241F8232000BFD9
S11326A00C37BD465DF8047B704700BF00E100E0D5
S11326B080B483B000AF0346FB80B7F90630002B2B
S11326C010DB0B49B7F906305B09FA8802F01F02E8
S11326D0012000FA02F2203341F82320BFF34F8F88
S11326E0BFF36F8F00BF0C37BD465DF8047B7047A6
S11326F000E100E080B483B000AF0346FB80B7F98B
S11327000630002B0CDB0949B7F906305B09FA885F
S113271002F01F02012000FA02F2603341F8232084
S113272000BF0C37BD465DF8047B704700E100E054
S113273080B483B000AF786039607B681A683B6806
S11327401A437B681A6000BF0C37BD465DF8047BF2
S1132750704780B483B000AF786039607B683A68B2
S11327601A6000BF0C37BD465DF8047B704780B427
S113277083B000AF786039607B683A685A6000BF04
S11327800C37BD465DF8047B704780B483B000AF5E
S1132790786039607B683A68DA6000BF0C37BD4600
S11327A05DF8047B704780B483B000AF7860396013
S11327B07B683A681A6100BF0C37BD465DF8047B3C
S11327C0704780B483B000AF786039607B683A6842
S11327D05A6100BF0C37BD465DF8047B704780B476
S11327E083B000AF78607B685B6918460C37BD46E0
S11327F05DF8047B704780B483B000AF78603960C3
S11328007B683A689A6100BF0C37BD465DF8047B6B
S1132810704780B483B000AF786039607B683A68F1
S1132820DA6100BF0C37BD465DF8047B704780B4A5
S113283083B000AF786039607B683A681A6200BF81
S11328400C37BD465DF8047B704780B483B000AF9D
S113285078607B681B6A18460C37BD465DF8047BBC
S1132860704780B483B000AF78607B685B6A1846B9
S11328700C37BD465DF8047B704780B483B000AF6D
S1132880786039607B683A68C3F8B82000BF0C37B9
S1132890BD465DF8047B704780B483B000AF7860B8
S11328A039607B683A68C3F8BC2000BF0C37BD466A
S11328B05DF8047B7047000080B584B000AF786099
S11328C00023FB601CE0FB6840F2DC5202FB03F3D4
S11328D02C4A134419462C4AFB6842F833102A4AFE
S11328E0FB68DB00134400225A60274AFB68DB00C4
S11328F01344DA7942F08002DA71FB680133FB6039
S1132900FB68012BDFD9204AD37B43F04003D37308
S11329101E4B00221A601E4B00221A600023FB602B
S113292011E0FB68DB011B4A134419461A4AFB6891
S113293042F83310184AFB68DB00134400225A6043
S1132940FB680133FB60FB680F2BEAD9124A92F84B
S1132950783043F0020382F87830104B00221A607A
S11329607B681B68084A114618460D4B98477B68DC
S11329701B68094A114618460A4B984700BF10378E
S1132980BD4680BDA0010020000100206415002088
S113299068150020600D0020100100206C15002037
S11329A013280000F727000080B582B000AF2B4B3E
S11329B01B681B6818462A4B984703467B60274BC5
S11329C01B681B681846274B984703463B60234BFC
S11329D01B681B681846244B98477B6803F0200348
S11329E0002B1ED01D4B1B681B687A6811461846C5
S11329F01E4B98471E4B1B681E4ADB001344DB79B1
S1132A00C3F3C013DBB2002B0BD0144B1B685B6801
S1132A10002B06D0114B1B685B68104A12681046E5
S1132A2098473B6803F00203002B0BD00B4B1B6849
S1132A309B68002B06D0094B1B689B68074A1268E9
S1132A4010469847054B1B681B683A6811461846A0
S1132A50094B984700BF0837BD4680BD601500206C
S1132A60DF2700004B28000063280000C327000074
S1132A7064150020000100202F28000080B582B0DA
S1132A8000AF786039607B683A681A607B681B68BD
S1132A90102118461A4B98477B681B681949184639
S1132AA0194B98477B681B6800211846174B9847B9
S1132AB07B681B6816491846164B98477B681B6849
S1132AC000211846144B98477B681B6840F201119B
S1132AD01846124B98477868114B9847114A7B68FF
S1132AE013605420104B98475420104B984754209F
S1132AF00F4B9847002318460837BD4680BD00BFDA
S1132B0053270000030110006F2700008B270000EB
S1132B1004070200A72700007B2800009928000072
S1132B20B928000060150020B1260000F526000039
S1132B307526000080B582B000AF78607B681B68A2
S1132B400C211846034B9847002318460837BD4606
S1132B5080BD00BF3127000080B483B000AF78602F
S1132B600B46FB707B68FA785A7100BF0C37BD4680
S1132B705DF8047B7047000080B582B000AF054B60
S1132B807B6001217868044B984700BF0837BD4635
S1132B9080BD00BF00080040592B000080B483B002
S1132BA000AF78600B46FB707B68FA781A7400BF3C
S1132BB00C37BD465DF8047B704780B485B000AF28
S1132BC078607B68DB69FB60FB681B0A03F03F03EA
S1132BD0FB60FB6818461437BD465DF8047B7047FC
S1132BE080B483B000AF786039607B683A68DA619A
S1132BF000BF0C37BD465DF8047B704780B582B0DA
S1132C0000AF0C4B7B6000237B8078680A4B9847AD
S1132C1003467B807B881B0203F47C531946786847
S1132C20064B984701217868054B984700BF083741
S1132C30BD4680BD00140040BB2B0000E12B00000A
S1132C409D2B000080B483B000AF78607B681B6963
S1132C505B0803F00103002B14BF01230023DBB244
S1132C6018460C37BD465DF8047B704780B485B0C8
S1132C7000AFF8600B467A60FB72FB7AFA680433A3
S1132C809B0013447A685A6000BF1437BD465DF850
S1132C90047B704780B582B000AF0A4B7B600A4A60
S1132CA001217868094B984700BF7868084B98471A
S1132CB0034683F00103DBB2002BF6D100BF0837D3
S1132CC0BD4680BD00100040062600036D2C0000A8
S1132CD0452C000080B483B000AF044B7B6000BF80
S1132CE00C37BD465DF8047B704700BF0010004000
S1132CF080B483B000AF78607B689B78DBB2184601
S1132D000C37BD465DF8047B704780B483B000AFD8
S1132D1078607B685B6818460C37BD465DF8047BB9
S1132D207047000090B583B000AF174B7B60174825
S1132D30174B984703463B603B6803F00203002BA4
S1132D400CD07B681B68002B08D07B681C680F487C
S1132D50104B984703461846A04712E03B6803F01F
S1132D600103002B0CD07B685B68002B08D07B68C8
S1132D705C680648074B984703461846A04700E09E
S1132D8000BF0C37BD4690BD3C1700200000024137
S1132D90F12C00000B2D000080B483B000AF7860EC
S1132DA0396000BF7B68DA693B681340002BF9D1B6
S1132DB000BF0C37BD465DF8047B704780B483B018
S1132DC000AF786039607B68DA693B681340002B98
S1132DD014BF01230023DBB218460C37BD465DF84F
S1132DE0047B704780B483B000AF78607B681B7E3F
S1132DF0DBB203F00103002B14BF01230023DBB279
S1132E0018460C37BD465DF8047B704780B483B028
S1132E1000AF78607B681B7EDBB25B0803F00103C4
S1132E20002B14BF01230023DBB218460C37BD4628
S1132E305DF8047B704780B483B000AF78607B6832
S1132E401B7EDBB29B0803F00103002B14BF01239C
S1132E500023DBB218460C37BD465DF8047B70478F
S1132E6080B582B000AF78607B681B6843F00202D3
S1132E707B681A6003217868024B984700BF0837C3
S1132E80BD4680BD992D000080B582B000AF78604A
S1132E907B681B6823F002027B681A600321786850
S1132EA0024B984700BF0837BD4680BD992D0000EE
S1132EB080B584B000AF7860396003217868074B2F
S1132EC098477B681B68FB60FA683B681340FB60AB
S1132ED0FB6818461037BD4680BD00BF992D000021
S1132EE080B582B000AF786039607B683A681A6058
S1132EF003217868024B984700BF0837BD4680BD60
S1132F00992D000080B582B000AF786039607B688D
S1132F103A685A601F217868024B984700BF083707
S1132F20BD4680BD992D000080B483B000AF7860A9
S1132F3039607B683A689A6000BF0C37BD465DF81B
S1132F40047B704780B483B000AF78600B467B800D
S1132F507B687A889A8100BF0C37BD465DF8047B94
S1132F60704780B483B000AF78600B46FB707B6819
S1132F70FA789A7300BF0C37BD465DF8047B70473E
S1132F8080B483B000AF786039607B683A689A6235
S1132F9000BF0C37BD465DF8047B704780B483B036
S1132FA000AF78607B689B6A18460C37BD465DF8B5
S1132FB0047B704780B483B000AF78600B46FB702D
S1132FC07B68FA7883F8302000BF0C37BD465DF883
S1132FD0047B704780B582B000AF786039607B684D
S1132FE0002B14BF01230023DBB2BB220749184680
S1132FF0074B98477B683A681A603868054B9847CE
S1133000034618460837BD4680BD00BF4C47000044
S11330108D160000A531000080B582B000AF786045
S11330207B681B681846034B984700BF0837BD46AA
S113303080BD00BF612E000080B582B000AF786013
S11330400B46FB707B681B68FA7811461846034BE5
S1133050984700BF0837BD4680BD00BF812F0000E0
S113306080B582B000AF78607B681B681846044B5B
S113307098470346DBB218460837BD4680BD00BFFB
S11330809D2F000080B582B000AF78607B681B681C
S11330901846034B9847034618460837BD4680BD7B
S11330A0E52D000080B582B000AF78607B681B68B6
S11330B01846034B9847034618460837BD4680BD5B
S11330C00D2E000080B582B000AF78607B681B686D
S11330D01846034B9847034618460837BD4680BD3B
S11330E0372E0000B0B48DB000AF7860134B07F1F9
S11330F00C041D460FCD0FC495E80F0084E80F00A3
S11331000023FB6210E0FB6A9B0007F130021344CA
S113311053F8243C1A467B689A4202D1FB6ADBB21C
S113312006E0FB6A0133FB62FB6A072BEBD9002341
S113313018463437BD46B0BC704700BF684700002E
S113314080B584B000AF78607868124B9847034626
S1133150BB730023FB730FE0FA7B0F4913465B003C
S11331601344DB000B441B78BA7B9A4201D1FB7BEE
S11331700CE0FB7B0133FB73FB7B002BECD040F2B8
S1133180472206490020064B98470023184610376B
S1133190BD4680BDE5300000180000204C4700000B
S11331A08D16000080B584B000AF78607868614BFC
S11331B098470346FB73012178685F4B98470346A1
S11331C083F00103DBB2002B20D0FA7B5B4913466A
S11331D05B001344DB000B4404331B6803F01C0343
S11331E0BB6002217868564B98470346002B06D0F3
S11331F07868544B984702217868534B9847BB68CA
S113320043F0010319467868504B984701217868C8
S11332104D4B9847FA7B494913465B001344DB0046
S11332200B4404331B6819467868484B9847FA7B6B
S1133230424913465B001344DB000B4408331B680C
S113324019467868424B9847FA7B3C4913465B0021
S11332501344DB000B440C331B68194678683D4B60
S11332609847FA7B354913465B001344DB000B4453
S113327004331B6803F40053002B0CD1FA7B2F4951
S113328013465B001344DB000B4404331B6803F454
S1133290C043002B22D0FA7B284913465B00134419
S11332A0DB000B4410331B88C3F30C0399B27A6818
S11332B0938961F30C039381FA7B204913465B00E5
S11332C01344DB000B4412331B7803F00703D9B219
S11332D07A68938961F34F3393810CE0FA7B174941
S11332E013465B001344DB000B4410331B88194660
S11332F07868194B9847FA7B104913465B001344CE
S1133300DB000B4413331B7819467868134B98473A
S1133310FA7B0A4913465B001344DB000B44143365
S11333201B78194678680E4B9847002318461037C7
S1133330BD4680BD41310000BD2D000018000020B5
S1133340B12E0000892E0000992D0000E12E00000E
S1133350052F0000292F0000452F0000632F0000D7
S1133360B52F000080B483B000AF7860396000BF2F
S11333707B689A683B681340002BF9D100BF0C3777
S1133380BD465DF8047B704780B483B000AF7860BD
S113339039607B689A683B681340002B14BF012393
S11333A00023DBB218460C37BD465DF8047B70473A
S11333B080B584B000AF78600B46FB707B681B68F7
S11333C0FB60FB6823F00203FB60FB785B001A469A
S11333D0FB681343FB607B68FA681A600321786812
S11333E0024B984700BF1037BD4680BD65330000CF
S11333F080B582B000AF78607B681B6823F002025E
S11334007B681A6003217868024B984700BF08372D
S1133410BD4680BD6533000080B584B000AF7860E0
S1133420396003217868074B98477B681B68FB6009
S1133430FA683B681340FB60FB6818461037BD46CA
S113344080BD00BF6533000080B582B000AF7860F6
S113345039607B683A681A6003217868024B9847A0
S113346000BF0837BD4680BD6533000080B500AF9E
S113347001211348134B9847034683F00103DBB241
S1133480002B11D002210E480F4B98470346002B06
S113349006D00B480D4B9847022109480C4B98471E
S11334A0012107480B4B984701210548084B9847D1
S11334B001210348084B98470023184680BD00BFEC
S11334C0008001418933000019340000F133000009
S11334D06533000049340000B133000090B400AFFC
S11334E000BF18462146BD4690BC704780B584B0E5
S11334F000AFC7E902017A607B681B691846034B79
S1133500984700BF1037BD4680BD00BF4D05000081
S113351090B585B000AF1A4B98470123FB60002398
S1133520BB6024E0174B9847C7E90001164BD7E965
S11335300001984703460C4618462146134B98470A
S1133540134B9847B860BA68D7E90001114B984704
S11335500D4BD7E90001984703460C46184621460F
S11335600D4B98470D4B984764200D4B9847FB68CB
S1133570002BD7D1002318461437BD4690BD00BF99
S1133580D1020000DD340000013E0000F10400001F
S113359015050000ED340000290500003F0500007A
S11335A02513000080B586B000AFF860B9607A607A
S11335B000237B61FB68002B02D04FF0FF330BE04C
S11335C07968B868064B984778617B69002B02DA02
S11335D04FF0FF3300E07B6918461837BD4680BDC5
S11335E07136000080B586B000AFF860B9607A60CB
S11335F000237B61FB68012B08D0FB68022B05D0FC
S1133600FB68032B02D04FF0FF330BE07968B868F6
S1133610064B984778617B69002B02DA4FF0FF3341
S113362000E07B6918461837BD4680BDA936000006
S113363080B582B000AF78600A4B1B689B6800219C
S11336401846094B9847074B1B685B6800211846CE
S1133650054B9847054A7B68136000BF0837BD4691
S113366080BD00BF30000020C53E00007015002062
S113367080B582B000AF78603960094B1B68002BBD
S113368001D1002308E0064B1B683A6892B27968BE
S11336901846044B9847034618460837BD4680BD74
S11336A070150020A913000080B582B000AF7860C7
S11336B03960094B1B68002B01D1002308E0064B3D
S11336C01B683A6892B279681846044B98470346D7
S11336D018460837BD4680BD7015002059130000F8
S11336E080B500AF0348044B98470248034B984702
S11336F000BF80BDD0160020F11400003136000058
S113370080B485B000AF786039607B685B68FB602B
S11337103B68FA685A60FB689A683B689A60FB6881
S11337209B683A685A60FB683A689A603B687A68B2
S11337301A617B681B685A1C7B681A6000BF1437C7
S1133740BD465DF8047B704780B485B000AF7860F7
S11337507B681B69FB607B685B687A6892689A6027
S11337607B689B687A6852685A60FB685A687B6811
S11337709A4203D17B689A68FB685A607B6800228E
S11337801A61FB681B685A1EFB681A60FB681B6899
S113379018461437BD465DF8047B7047064B19681C
S11337A00868B0E8F04F80F30988BFF36F8F4FF0DB
S11337B0000080F3118870477415002000BF00BF1B
S11337C0EFF30980BFF36F8F144B1A681EF0100FCC
S11337D008BF20ED108A20E9F04F10604DF8043D39
S11337E04FF0800080F31188BFF34F8FBFF36F8FCA
S11337F000F002F94FF0000080F3118808BC19684A
S11338000868B0E8F04F1EF0100F08BFB0EC108A43
S113381080F30988BFF36F8F704700BF74150020D1
S113382000BF00BF80B584B000AFEFF311824FF04A
S1133830800383F31188BFF36F8FBFF34F8FFA6058
S1133840BB60094B98470346002B03D0074B4FF04E
S113385080521A6000237B607B6883F3118800BF69
S11338601037BD4680BD00BF7138000004ED00E094
S113387080B586B000AF00237B61514B1B68002BE1
S113388040F08E804F4B1B6801334E4A13604D4B02
S11338901B683B613B69002B1FD14B4B1B681B68AA
S11338A0002B09D04FF0800383F31188BFF36F8F8F
S11338B0BFF34F8F3B60FEE7434B1B68FB60434BFA
S11338C01B68414A1360414AFB681360404B1B6804
S11338D001333F4A13603F4B98473F4B1B683A699B
S11338E09A424ED3384B1B681B68002B01D101232D
S11338F000E00023002B04D0374B4FF0FF321A6056
S11339003FE0314B1B68DB68DB68BB60BB685B680E
S11339107B603A697B689A4203D22F4A7B681360C2
S11339202FE0BB68043318462C4B9847BB689B6A4E
S1133930002B04D0BB6818331846284B9847BB6843
S1133940DA6A274B1B689A4203D9BB68DB6A244AAC
S11339501360BB68DA6A13469B0013449B00214A38
S11339601A44BB680433194610461F4B9847BB687A
S1133970DA6A1E4B1B68DB6A9A42B3D301237B616C
S1133980B0E71A4B1B68DA6A164913469B001344C6
S11339909B000B441B68012B07D901237B6104E0C6
S11339A0134B1B680133124A1360124B1B68002B24
S11339B001D001237B617B6918461837BD4680BD61
S11339C0701600205016002004160020081600204F
S11339D064160020B13A00006C160020493700003C
S11339E054160020781500200137000074150020BB
S11339F05C1600206016002080B483B000AF274B13
S1133A001B68002B03D0264B01221A603FE0244B95
S1133A1000221A6012E0234B1B68002B09D14FF0DF
S1133A20800383F31188BFF36F8FBFF34F8F3B6025
S1133A30FEE71C4B1B68013B1A4A1360194B1A68BA
S1133A40194913469B0013449B000B441B68002B2D
S1133A50E1D0144B1A6813469B0013449B00124A8E
S1133A6013447B607B685B685A687B685A607B6838
S1133A705A687B6808339A4204D17B685B685A6849
S1133A807B685A607B685B68DB68084A136000BF28
S1133A900C37BD465DF8047B704700BF70160020EC
S1133AA0601600205416002078150020741500209C
S1133AB080B483B000AF0F4B1B681B68002B01D18F
S1133AC0012300E00023002B04D00B4B4FF0FF3206
S1133AD01A6008E0074B1B68DB68DB687B607B6867
S1133AE05B68054A136000BF0C37BD465DF8047B74
S1133AF0704700BF041600206C16002081F00041BE
S1133B0002E000BF83F0004330B54FEA41044FEABE
S1133B10430594EA050F08BF90EA020F1FBF54EA59
S1133B20000C55EA020C7FEA645C7FEA655C00F0F5
S1133B30E2804FEA5454D4EB5555B8BF6D420CDDC6
S1133B402C4480EA020281EA030382EA000083EA49
S1133B50010180EA020281EA0303362D88BF30BDE9
S1133B6011F0004F4FEA01314FF4801C4CEA11313F
S1133B7002D0404261EB410113F0004F4FEA03339E
S1133B804CEA133302D0524263EB430394EA050F29
S1133B9000F0A780A4F10104D5F1200E0DDB02FA98
S1133BA00EFC22FA05F2801841F1000103FA0EF22C
S1133BB0801843FA05F359410EE0A5F120050EF1F2
S1133BC0200E012A03FA0EFC28BF4CF0020C43FA23
S1133BD005F3C01851EBE37101F0004507D54FF030
S1133BE0000EDCF1000C7EEB00006EEB0101B1F580
S1133BF0801F1BD3B1F5001F0CD349085FEA3000C6
S1133C004FEA3C0C04F101044FEA445212F5800FD0
S1133C1080F09A80BCF1004F08BF5FEA500C50F16D
S1133C20000041EB045141EA050130BD5FEA4C0C50
S1133C30404141EB010111F4801FA4F10104E9D1D9
S1133C4091F0000F04BF01460020B1FA81F308BFD0
S1133C502033A3F10B03B3F120020CDA0C3208DD9C
S1133C6002F1140CC2F10C0201FA0CF021FA02F177
S1133C700CE002F11402D8BFC2F1200C01FA02F1E7
S1133C8020FA0CFCDCBF41EA0C019040E41AA2BF0C
S1133C9001EB0451294330BD6FEA04041F3C1CDAD4
S1133CA00C340EDC04F11404C4F1200220FA04F0F4
S1133CB001FA02F340EA030021FA04F345EA03019E
S1133CC030BDC4F10C04C4F1200220FA02F001FA60
S1133CD004F340EA0300294630BD21FA04F02946E2
S1133CE030BD94F0000F83F4801306BF81F480117B
S1133CF00134013D4EE77FEA645C18BF7FEA655CEE
S1133D0029D094EA050F08BF90EA020F05D054EABF
S1133D10000C04BF1946104630BD91EA030F1EBFC4
S1133D200021002030BD5FEA545C05D140004941C8
S1133D3028BF41F0004130BD14F580043CBF01F5BB
S1133D40801130BD01F0004545F0FE4141F47001A1
S1133D504FF0000030BD7FEA645C1ABF194610467C
S1133D607FEA655C1CBF0B46024650EA013406BF7D
S1133D7052EA033591EA030F41F4002130BD00BF3C
S1133D8090F0000F04BF0021704730B54FF48064F9
S1133D9004F132044FF000054FF0000150E700BF7A
S1133DA090F0000F04BF0021704730B54FF48064D9
S1133DB004F1320410F0004548BF40424FF00001C6
S1133DC03EE700BF42004FEAE2014FEA31014FEA09
S1133DD002701FBF12F07F4393F07F4F81F0605158
S1133DE0704792F0000F14BF93F07F4F704730B5C7
S1133DF04FF4607401F0004521F0004120E700BF5A
S1133E0050EA010208BF704730B54FF000050AE0E0
S1133E1050EA010208BF704730B511F0004502D5E1
S1133E20404261EB41014FF4806404F132045FEAE3
S1133E30915C3FF4DCAE4FF003025FEADC0C18BF88
S1133E4003325FEADC0C18BF033202EBDC02C2F17E
S1133E50200300FA03FC20FA02F001FA03FE40EA10
S1133E600E0021FA02F11444C1E600BF70B50D4EF4
S1133E700D4CA41BA4100025A54209D10B4E0C4CDB
S1133E8000F0BEFCA41BA4100025A54205D170BD02
S1133E9056F8253098470135EEE756F8253098470F
S1133EA00135F2E70C4800000C4800000C48000003
S1133EB01048000002440346934200D1704703F8BF
S1133EC0011BF9E700294FF480630CBF0222002292
S1133ED000F000B82DE9F7431D46514B1E68044617
S1133EE00F46904626B1B36913B9304600F092F9F3
S1133EF04C4B9C4252D17468B8F1020F06D0B8F111
S1133F00010F00F28980002DC0F2868021463046E0
S1133F1000F016F9616B41B104F14403994202D0F7
S1133F20304600F02DFA002363630023A36163602D
S1133F30A3891B0603D52169304600F021FAA38921
S1133F4023F44A6323F00303B8F1020FA3815DD085
S1133F5001AB6A462146304600F0E6F9A3891843CE
S1133F60A0812DBB009D284600F002FA07460028D8
S1133F704ED1DDF80090A9453CD14FF0FF30A38924
S1133F8043F00203A3810023A36004F147032360E9
S1133F9023610123636103B0BDE8F083224B9C429B
S1133FA001D1B468A8E7214B9C4208BFF468A3E799
S1133FB0002FD8D0B36913B9304600F02BF9B8F10B
S1133FC0010F08BFA389276004BF43F00103A38145
S1133FD0A389276113F0080065611BD013F0010069
S1133FE018BF6D424FF000031DBFA360A5611846C2
S1133FF0A560D0E7484600F0BBF907460028BCD0CE
S1134000A38943F08003A3814D46D3E70020B6E79C
S1134010A946F5E7A060BEE74FF0FF30BBE700BF5D
S113402030000020C0470000E0470000A047000027
S11340308A892DE9F041054610070C465AD44B688D
S1134040002B05DC0B6C002B02DC0020BDE8F081AA
S1134050E66A002EF9D0002312F480522F682B60F8
S113406033D0606DA3895A0705D56368C01A636BA2
S11340700BB1236CC01A00230246E66A216A284663
S1134080B047431CA38906D129681D294BD82B4A64
S1134090CA40D60747D500226260D904226922604B
S11340A004D5421C01D12B6803B96065616B2F6094
S11340B00029CAD004F14403994202D0284600F0F2
S11340C05FF900206063BDE8F081216A012328467E
S11340D0B047411CC6D12B68002BC3D01D2B01D087
S11340E0162B01D12F60B0E7A38943F04003A381CD
S11340F0BDE8F0810F69002FA7D093070E6808BFB1
S11341004B690F6018BF0023A6EB07088B60B8F15A
S1134110000F9ADD43463A46216AA66A2846B0470C
S1134120002807DCA38943F04003A3814FF0FF304C
S1134130BDE8F0810744A8EB0008E8E7010040204F
S113414038B50B6905460C46DBB118B183690BB968
S113415000F060F80C4B9C4209D16C68B4F90C3047
S11341607BB121462846BDE83840FFF761BF074BC5
S11341709C4201D1AC68F1E7054B9C4208BFEC6856
S1134180ECE7002038BD00BFC0470000E047000056
S1134190A0470000014900F0A9B800BF4141000058
S11341A0002310B504460360436083608181436645
S11341B0C281036143618361194608225C30FFF7C1
S11341C079FE054B6362054BA362054BE362054B25
S11341D02462236310BD00BFF94400001B450000A6
S11341E0534500007745000070B54A1E68255543C5
S11341F00E4605F1740100F011F9044640B10021A6
S113420080E842000C30A06005F16802FFF752FE1E
S1134210204670BD836910B5044633BB8364C36410
S11342200365124B124A1B688262984204BF012341
S1134230836100F01FF86060204600F01BF8A06066
S1134240204600F017F80022E06004216068FFF7C0
S1134250A7FF01220921A068FFF7A2FF0222122171
S1134260E068FFF79DFF0123A36110BD9C47000098
S113427095410000F8B51C4B1E68B369074613B995
S11342803046FFF7C7FF4836B4687368013B03D56F
S1134290336833B13668F7E7B4F90C506DB168345C
S11342A0F4E704213846FFF79FFF30600028F1D17E
S11342B00C233B6004462046F8BD4FF6FF73E381B0
S11342C00123A38165662560A5606560256165613C
S11342D0A5610822294604F15C00FFF7EBFD656344
S11342E0A563A564E564E6E79C4700002DE9F8436F
S11342F08046894600F14804002614B93046BDE8DA
S1134300F883A5686768013F01D52468F5E7AB89A0
S1134310012B07D9B5F90E30013303D029464046A5
S1134320C84706436835EEE770B50E46B1F90E107E
S1134330002990B014461D4607DA00232B60B38988
S11343401A0610D44FF480630EE001AA00F03AF983
S11343500028F2DB029A02F47042A2F500535A429A
S11343605A412A60EEE740230020236010B070BD5C
S1134370024B0146186800F051B800BF300000201D
S113438038B50546002945D051F8043C0C1F002BD4
S1134390B8BFE41800F03AF91F4A1368104633B95D
S11343A0636014602846BDE8384000F030B9A34289
S11343B00CD921686218934204BF1A685B68636071
S11343C004BF521822600460ECE713465A680AB12D
S11343D0A242FAD919685818A0420BD120680144A6
S11343E0581882421960DDD1106852685A6001443D
S11343F01960D7E702D90C232B60D3E72068211872
S11344008A4204BF11685268626004BF09182160BF
S11344105C60C7E738BD00BF7416002070B5CD1CC2
S113442025F0030508350C2D38BF0C25002D064654
S113443001DBA94203D90C233360002070BD00F0D6
S1134440E5F8234A1468214691B9224C23681BB924
S1134450304600F041F820602946304600F03CF830
S1134460431C26D10C233360304600F0D0F8E4E737
S11344700B685B1B1AD40B2B0FD90B60CD50CC18D7
S1134480304600F0C4F804F10B00231D20F00700AF
S1134490C31A1BD05A42E25070BD8C420DBF6368F0
S11344A04B686360136018BF0C46E9E70C46496823
S11344B0CAE7C41C24F00304A04205D0211A3046E4
S11344C000F00AF80130CDD02560D9E770BD00BFF7
S11344D0741600207816002038B5064C00230546D3
S11344E008462360FDF7E6F8431C02D1236803B1B4
S11344F02B6038BD4C17002010B50C46B1F90E10D6
S113450000F086F80028ABBF636DA3891B1823F461
S11345108053ACBF6365A38110BD2DE9F0411F46F4
S11345208B89DB0505460C46164605D50223002279
S1134530B1F90E1000F058F8A389B4F90E1023F461
S11345408053A38132463B462846BDE8F04100F043
S113455017B810B50C46B1F90E1000F045F8431C1D
S1134560A38915BF606523F4805343F48053A3816A
S113457018BFA38110BDB1F90E1000F013B80000EC
S113458038B5074C054608461146002222601A46F3
S1134590FFF728F8431C02D1236803B12B6038BD10
S11345A04C17002038B5064C002305460846236006
S11345B0FDF7A0F8431C02D1236803B12B6038BD7A
S11345C04C17002038B5074C002305460846114611
S11345D02360FDF79BF8431C02D1236803B12B60D1
S11345E038BD00BF4C17002038B5074C05460846B7
S11345F01146002222601A46FDF798F8431C02D1A6
S1134600236803B12B6038BD4C17002070477047F6
S113461038B5074C054608461146002222601A4662
S1134620FEF7C0FF431C02D1236803B12B6038BDE1
S11346304C170020000000000000803F00000040F4
S1134640000000003333D33F333353402E2E2F6802
S1134650706C2F706F72742F68706C5F6770696F05
S11346605F626173652E680048656C6C6F20576FDC
S1134670726C6421000000002E2E2F657468657230
S11346806E65745F7068792F65746865726E6574A1
S11346905F7068792E6300002E2E2F68616C2F7373
S11346A072632F68616C5F6164635F73796E632EFC
S11346B0630000002E2E2F68616C2F7372632F68C5
S11346C0616C5F63616E5F6173796E632E6300007A
S11346D02E2E2F68616C2F7372632F68616C5F6973
S11346E06F2E63002E2E2F68616C2F7372632F68F8
S11346F0616C5F6D61635F6173796E632E6300004B
S11347002E2E2F68616C2F7372632F68616C5F7536
S1134710736172745F73796E632E6300010000002D
S11347200000000000000000000000000000000085
S1134730000000002E2E2F68706C2F6164632F68B8
S1134740706C5F6164632E63000000002E2E2F687E
S1134750706C2F736572636F6D2F68706C5F736517
S113476072636F6D2E63000000300040003400401F
S113477000200141004001410000004300040043C7
S113478000080043000C004300000000000000008B
S113479000000000000000000000000034000020C1
S11347A00000000000000000000000000000000005
S11347B000000000000000000000000000000000F5
S11347C000000000000000000000000000000000E5
S11347D000000000000000000000000000000000D5
S11347E000000000000000000000000000000000C5
S11347F000000000000000000000000000000000B5
S1134800F8B500BFF8BC08BC9E467047890200009A
S1134810F8B500BFF8BC08BC9E46704765020000AE
S1134820030000001C170020FC160020C400002018
S1134830D4000020DC00002002000000040010402E
S11348400000030002007000B9FC0000000000003A
S11348503400002000000000C0470000E0470000D2
S1134860A04700000000000000000000000000005D
S11348700000000000000000000000000000000034
S11348800000000000000000000000000000000024
S11348900000000000000000000000000000000014
S11348A00000000000000000000000000000000004
S10748B00000000000
S9030000FC
